:020000040800F2
:1000000000280020750F0008050F00080B0F0008DE
:10001000110F0008170F00081D0F00080000000056
:10002000000000000000000000000000230F000896
:100030002F0F0008000000003B0F0008470F0008CA
:10004000BD0F0008BD0F0008BD0F0008BD0F000860
:10005000BD0F0008BD0F0008BD0F0008BD0F000850
:10006000BD0F0008BD0F0008BD0F0008BD0F000840
:10007000BD0F0008BD0F0008BD0F0008BD0F000830
:10008000BD0F0008BD0F0008BD0F0008BD0F000820
:10009000BD0F0008BD0F0008BD0F0008BD0F000810
:1000A000BD0F0008BD0F0008BD0F0008BD0F000800
:1000B000550F0008BD0F000800000000BD0F00082C
:1000C000BD0F00080000000000000000BD0F000888
:1000D00000000000BD0F0008BD0F00080000000078
:1000E000BD0F0008BD0F0008BD0F00080000000094
:1000F0000000000000000000000000000000000000
:0C01000000000000000000005FF808F1A3
:10010C0010B5054C237833B9044B13B10448AFF345
:10011C0000800123237010BD680000200000000047
:10012C00E825000808B5034B1BB103490348AFF39E
:10013C00008008BD000000006C000020E8250008CD
:10014C0080B483B000AF78600C4A7B6852F82330DF
:10015C00012B0DD1094B00221A60084B00225A606A
:10016C00064B00229A60054B0022DA60012300E066
:10017C00002318460C37BD4680BC70478400002015
:10018C0080B483B000AF7860044A7B68012142F8E8
:10019C00231000BF0C37BD4680BC70478400002084
:1001AC0080B582B000AF00237B609CE0524A7B6834
:1001BC0052F8232051497B6841F82320504A7B6830
:1001CC0052F823204C497B6841F823207B68032B91
:1001DC003AD801A252F823F0F50100080D020008EC
:1001EC00250200083D0200084FF48061454801F0EB
:1001FC00CDF903461946424A7B6842F8231024E0A5
:10020C004FF400613F4801F0C1F9034619463C4ADE
:10021C007B6842F8231018E04FF48051394801F004
:10022C00B5F903461946364A7B6842F823100CE0B0
:10023C004FF40051334801F0A9F903461946304AEE
:10024C007B6842F8231000E000BF2C4A7B6852F810
:10025C00232029497B6851F823309A4240D1264A01
:10026C007B6852F8232026497B6851F823309A4248
:10027C0036D1234A7B6852F8232023497B6851F8F6
:10028C0023309A4217D01E4A7B6852F823201E490D
:10029C007B6841F823201A4A7B6852F82330002BE4
:1002AC001ED17868FFF76CFF184A7B684FF4967183
:1002BC0042F8231014E0154A7B6852F823305A1E7A
:1002CC0012497B6841F82320104A7B6852F823308E
:1002DC00002B05D10D4A7B684FF4967142F8231020
:1002EC007B6801337B607B68032B7FF75FAF00BFBC
:1002FC0000BF0837BD4680BD100000200000002064
:10030C0020000020000801403000002040000020A8
:10031C0080B582B000AF7860314A7B6813441B789B
:10032C0003F00103DBB21A4601212E4801F045F916
:10033C002B4A7B6813441B785B08DBB203F0010388
:10034C00DBB21A460221274801F037F9244A7B68B0
:10035C0013441B789B08DBB203F00103DBB21A4693
:10036C000421204801F029F91D4A7B6813441B78AD
:10037C00DB08DBB203F00103DBB21A460821194893
:10038C0001F01BF9164A7B6813441B781B09DBB27E
:10039C0003F00103DBB21A461021124801F00DF9EB
:1003AC000F4A7B6813441B785B09DBB203F0010333
:1003BC00DBB21A4620210B4801F0FFF8084A7B6893
:1003CC0013441B789B09DBB203F00103DBB21A4622
:1003DC004021044801F0F1F800BF0837BD4680BD4C
:1003EC0050000020000C014080B582B000AF786056
:1003FC00344A7B6813441B7803F00103DBB21A46C2
:10040C008021314801F0D9F82E4A7B6813441B78BF
:10041C005B08DBB203F00103DBB21A464FF48071C8
:10042C00294801F0CAF8274A7B6813441B789B08BB
:10043C00DBB203F00103DBB21A464FF40071224821
:10044C0001F0BBF81F4A7B6813441B78DB08DBB256
:10045C0003F00103DBB21A464FF480611A4801F035
:10046C00ACF8184A7B6813441B781B09DBB203F009
:10047C000103DBB21A464FF40061134801F09DF8FA
:10048C00104A7B6813441B785B09DBB203F0010351
:10049C00DBB21A464FF480510B4801F08EF8094A32
:1004AC007B6813441B789B09DBB203F00103DBB2BE
:1004BC001A464FF40051044801F07FF800BF08378A
:1004CC00BD4680BD50000020000C014080B582B0BC
:1004DC0000AF786039605F4B1B68022B70D0022B29
:1004EC0000F3AF80002B02D0012B32D0A9E07B6847
:1004FC00594A82FB03129210DB17D31A1846FFF7E6
:10050C0007FF3B68544A82FB03129210DB17D31A85
:10051C001846FFF769FF00224FF480414F4801F065
:10052C004CF801224FF400414C4801F046F80022EF
:10053C004FF480414A4801F040F801224FF4004149
:10054C00474801F03AF8434B01221A6000F020FCB6
:10055C007CE07B68404A82FB03129210DB17D31AB3
:10056C001846FFF7D5FE3B683B4A82FB03129210FC
:10057C00DB17D31A1846FFF737FF00224FF48041E0
:10058C00364801F01AF801224FF40041334801F0CB
:10059C0014F800224FF48041314801F00EF801228A
:1005AC004FF400412E4801F008F800F0A9FB034677
:1005BC00012B48D1274B02221A6000F0E9FB42E0E4
:1005CC007A68254B83FB02139910D317C91A0B4673
:1005DC009B000B445B00D11A0846FFF799FE3A6862
:1005EC001D4B83FB02139910D317C91A0B469B00A2
:1005FC000B445B00D11A0846FFF7F6FE01224FF4BC
:10060C008041164800F0D9FF00224FF400411348F6
:10061C0000F0D3FF01224FF48041114800F0CDFFD0
:10062C0000224FF400410E4800F0C7FF00F068FBB9
:10063C000346012B09D1074B01221A6000F0A8FBDD
:10064C0003E000BF02E000BF00E000BF00BF0837BE
:10065C00BD4680BD980000206766666600080140B4
:10066C00000C014080B500AF8D4B1B68022B00F0D5
:10067C00A680022B00F30D81002B02D0012B34D06D
:10068C0007E1884B1B68013B874A1360874B1B684B
:10069C00013B874A136000221021864800F08DFF31
:1006AC0001222021834800F088FF0122402181484B
:1006BC0000F083FF012280217E4800F07EFF0122A2
:1006CC004FF480717B4800F078FF00224FF40071EA
:1006DC00784800F072FF00F037FB00F047FB00F0A9
:1006EC0063FB6F4B01221A60D8E000F01BFB034642
:1006FC00012B0BD16C4B1B68013B6B4A13606C4B91
:10070C001B68013B6A4A136000F04EFB00F0E6FAEE
:10071C000346012B13D100224FF48071654800F081
:10072C004CFF01224FF40071624800F046FF5D4B14
:10073C001A685E4B1B68D31A013B5D4A136000F0CC
:10074C00BBFA0346012B30D1584B1B68564A136039
:10075C00544B1B68564A136001221021554800F077
:10076C002CFF01222021534800F027FF00224021BA
:10077C00504800F022FF002280214E4800F01DFF5F
:10078C0001224FF480714B4800F017FF01224FF407
:10079C000071484800F011FF00F0D6FA00F0E6FABC
:1007AC0000F002FB3E4B02221A600020FFF7C8FC4F
:1007BC000346002B6FD03A4B03221A606BE000F01B
:1007CC00B1FA0346012B0BD1374B1B68013B364A60
:1007DC001360374B1B68013B354A136000F0E4FA99
:1007EC0000F07CFA0346012B11D100222021314864
:1007FC0000F0E3FE012240212E4800F0DEFE294BE2
:10080C001A682A4B1B68D31A013B274A136000F065
:10081C0053FA0346012B32D1224B1B68013B224A6F
:10082C001360224B1B68013B214A136000221021EC
:10083C00204800F0C2FE012220211E4800F0BDFE1F
:10084C00012240211B4800F0B8FE012280211948EA
:10085C0000F0B3FE01224FF48071164800F0ADFE9B
:10086C0000224FF40071134800F0A7FE00F06CFA60
:10087C0000F07CFA00F098FA094B01221A60002073
:10088C00FFF75EFC0346002B07D0054B03221A60D2
:10089C0003E000BF02E000BF00E000BF00BF80BD6E
:1008AC00940000209C000020A4000020A000002048
:1008BC00A80000200008014080B500AF654B1B6804
:1008CC00052B00F08280052B00F3BB80032B02D09C
:1008DC00042B3DD0B5E0604B02221A605F4B1B68C5
:1008EC005F4A13600020FFF72BFC0346012B03D15A
:1008FC00584B04221A60A6E00120FFF721FC0346A6
:10090C00012B0AD1554B1B680133544A1360554BCC
:10091C001B680133534A136095E00220FFF710FC6B
:10092C000346012B0AD14D4B1B68022B40F38B80E5
:10093C004A4B1B68013B494A136084E00320FFF7D4
:10094C00FFFB0346012B7ED1424B00221A607AE05A
:10095C00414B03221A60414B1A68424B1B68D31A55
:10096C003F4A13600020FFF7EBFB0346012B03D13A
:10097C00384B05221A6068E00120FFF7E1FB0346C3
:10098C00012B05D1354B1B680133344A13605CE0F5
:10099C000220FFF7D5FB0346012B0CD12F4B1A6815
:1009AC00304B1B68D31A012B4FDD2C4B1B68013BC2
:1009BC002A4A136049E00320FFF7C2FB0346012BD0
:1009CC0043D1244B00221A603FE0234B04221A60CF
:1009DC00244B1B68224A13600020FFF7B1FB03462F
:1009EC00012B03D11B4B00221A6030E00120FFF7D2
:1009FC00A7FB0346012B0AD1184B1B680133174A7E
:100A0C001360184B1B680133164A13601FE0022059
:100A1C00FFF796FB0346012B09D1124B1B68012BE8
:100A2C0015DD104B1B68013B0E4A13600FE00320D1
:100A3C00FFF786FB0346012B09D1064B00221A60F7
:100A4C0005E000BF04E000BF02E000BF00E000BF13
:100A5C0000BF80BD94000020A40000209C0000205A
:100A6C00A8000020A000002080B500AF00F0A2FA82
:100A7C0000F024F800F0AAF800F05CF80A4801F045
:100A8C00EDF90A4B04221A60094B02221A60FFF797
:100A9C00E9FDFFF711FF074B1B68074A1268114667
:100AAC001846FFF713FDF2E7AC0000209C00002075
:100ABC00A0000020A4000020A800002080B590B069
:100ACC0000AF07F1180328220021184601F07EFD23
:100ADC003B1D00221A605A609A60DA601A61022388
:100AEC00BB610123BB621023FB6200237B6307F114
:100AFC001803184600F07AFD0346002B01D000F0D5
:100B0C00D5F80F237B600023BB600023FB60002320
:100B1C003B6100237B613B1D0021184600F0E8FF80
:100B2C000346002B01D000F0C1F800BF4037BD4692
:100B3C0080BD000080B586B000AF07F1080300222D
:100B4C001A605A609A60DA603B4600221A605A605A
:100B5C001D4B4FF080421A601B4B41F63F725A609E
:100B6C00194B00229A60184B0922DA60164B0022AE
:100B7C001A61154B00229A61134801F01FF90346C4
:100B8C00002B01D000F092F84FF48053BB6007F1BA
:100B9C00080319460C4801F0B5FA0346002B01D0A6
:100BAC0000F084F800233B6000237B603B46194631
:100BBC00054801F07DFC0346002B01D000F076F8CF
:100BCC0000BF1837BD4680BDAC00002080B586B094
:100BDC0000AF07F1080300221A605A609A60DA60CD
:100BEC00294B9B69284A43F004039361264B9B696C
:100BFC0003F004037B607B68234B9B69224A43F020
:100C0C0008039361204B9B6903F008033B603B682E
:100C1C0000224CF2F0311D4800F0CFFC00224FF6C0
:100C2C00FF711B4800F0C9FC4CF2F033BB60012390
:100C3C00FB6000233B6102237B6107F1080319462B
:100C4C00124800F027FB4FF6FF73BB600123FB60DB
:100C5C0000233B6102237B6107F1080319460C4812
:100C6C0000F018FB4FF47053BB600023FB600123B2
:100C7C003B6107F108031946044800F00BFB00BF69
:100C8C001837BD4680BD00BF00100240000801406F
:100C9C00000C014080B582B000AF7860FFF780FA9D
:100CAC0000F08EF800BF0837BD4680BD80B400AFA1
:100CBC0072B600BFFEE7000080B400AF064B1B68A5
:100CCC00012B04D1044B00221A60012300E0002305
:100CDC001846BD4680BC7047F400002080B400AFBD
:100CEC00064B1B68012B04D1044B00221A60012314
:100CFC0000E000231846BD4680BC7047FC00002075
:100D0C0080B400AF064B1B68012B04D1044B0022AE
:100D1C001A60012300E000231846BD4680BC7047D2
:100D2C000401002080B400AF064B1B68012B04D1DA
:100D3C00044B00221A60012300E000231846BD4634
:100D4C0080BC70470C01002080B400AF054B1B68C1
:100D5C00642202FB03F3044A136000BFBD4680BC4F
:100D6C00704700BF9C000020F800002080B400AF4A
:100D7C00054B1B68642202FB03F3044A136000BF9B
:100D8C00BD4680BC704700BFA000002000010020C1
:100D9C0080B400AF034B32221A6000BFBD4680BC4A
:100DAC00704700BF0801002080B400AF034B6422E1
:100DBC001A6000BFBD4680BC704700BF1001002008
:100DCC0080B400AF214B1B68002B0BDD1F4B1B6845
:100DDC00013B1E4A13601D4B1B68002B02D11C4BA0
:100DEC0001221A601B4B1B68002B0BDD194B1B6877
:100DFC00013B184A1360174B1B68002B02D1164B92
:100E0C0001221A60154B1B68002B0BDD134B1B6862
:100E1C00013B124A1360114B1B68002B02D1104B83
:100E2C0001221A600F4B1B68002B0BDD0D4B1B684E
:100E3C00013B0C4A13600B4B1B68002B02D10A4B75
:100E4C0001221A6000BFBD4680BC7047F80000202C
:100E5C00F400002000010020FC000020080100200C
:100E6C0004010020100100200C01002080B483B08C
:100E7C0000AF0E4B9B690D4A43F0010393610B4B82
:100E8C009B6903F001037B607B68084BDB69074AB5
:100E9C0043F08053D361054BDB6903F080533B6017
:100EAC003B6800BF0C37BD4680BC70470010024049
:100EBC0080B584B000AF78607B681B68B3F1804F5D
:100ECC0013D10C4BDB690B4A43F00103D361094B83
:100EDC00DB6903F00103FB60FB68002200211C208E
:100EEC0000F0A1F91C2000F0BAF900BF1037BD4684
:100EFC0080BD00BF0010024080B400AFFEE780B49C
:100F0C0000AFFEE780B400AFFEE780B400AFFEE7B1
:100F1C0080B400AFFEE780B400AF00BFBD4680BC1C
:100F2C00704780B400AF00BFBD4680BC704780B432
:100F3C0000AF00BFBD4680BC704780B500AF00F06D
:100F4C007FF800BF80BD000080B500AF024800F004
:100F5C00D1FF00BF80BD00BFAC00002080B400AF4B
:100F6C0000BFBD4680BC70470C480D490D4A00239C
:100F7C0002E0D458C4500433C4188C42F9D30A4A42
:100F8C000A4C002301E013600432A242FBD3FFF7AA
:100F9C00E5FF01F0F7FAFFF767FD7047000000204E
:100FAC006800002028260008680000201801002096
:100FBC00FEE7000080B500AF084B1B68074A43F002
:100FCC0010031360032000F023F90F2000F008F841
:100FDC00FFF74CFF0023184680BD00BF00200240E5
:100FEC0080B582B000AF7860124B1A68124B1B7838
:100FFC0019464FF47A73B3FBF1F3B2FBF3F31846D3
:10100C0000F03BF90346002B01D001230EE07B6876
:10101C000F2B0AD8002279684FF0FF3000F003F94B
:10102C00064A7B681360002300E00123184608374A
:10103C00BD4680BD5C0000206400002060000020E4
:10104C0080B400AF054B1B781A46054B1B68134444
:10105C00034A136000BFBD4680BC7047640000208B
:10106C001401002080B400AF024B1B681846BD462B
:10107C0080BC70471401002080B485B000AF78604C
:10108C007B6803F00703FB600C4BDB68BB60BA6842
:10109C004FF6FF031340BB60FB681A02BB68134397
:1010AC0043F0BF6343F40033BB60044ABB68D360B6
:1010BC0000BF1437BD4680BC704700BF00ED00E098
:1010CC0080B400AF044BDB681B0A03F0070318461F
:1010DC00BD4680BC704700BF00ED00E080B483B01B
:1010EC0000AF0346FB7197F90730002B0BDBFB7944
:1010FC0003F01F02064997F907305B09012000FA3B
:10110C0002F241F8232000BF0C37BD4680BC70476B
:10111C0000E100E080B483B000AF03463960FB719E
:10112C0097F90730002B0ADB3B68DAB20C4997F9C8
:10113C0007301201D2B20B4483F800230AE03B685B
:10114C00DAB20849FB7903F00F03043B1201D2B267
:10115C000B441A7600BF0C37BD4680BC704700BFED
:10116C0000E100E000ED00E080B489B000AFF86071
:10117C00B9607A60FB6803F00703FB61FB69C3F19C
:10118C000703042B28BF0423BB61FB690433062B24
:10119C0002D9FB69033B00E000237B614FF0FF3277
:1011AC00BB6902FA03F3DA43BB681A407B699A40C5
:1011BC004FF0FF317B6901FA03F3D9437B680B4095
:1011CC00134318462437BD4680BC704780B582B0A7
:1011DC0000AF78607B68013BB3F1807F01D30123C2
:1011EC000FE00A4A7B68013B53600F214FF0FF3040
:1011FC00FFF790FF054B00229A60044B07221A6000
:10120C00002318460837BD4680BD00BF10E000E043
:10121C0080B582B000AF78607868FFF72DFF00BF13
:10122C000837BD4680BD80B586B000AF0346B960B7
:10123C007A60FB7300237B61FFF742FF78617A6869
:10124C00B9687869FFF790FF024697F90F3011469D
:10125C001846FFF75FFF00BF1837BD4680BD80B54D
:10126C0082B000AF0346FB7197F907301846FFF7C1
:10127C0035FF00BF0837BD4680BD80B582B000AFDA
:10128C0078607868FFF7A2FF034618460837BD461A
:10129C0080BD000080B48BB000AF78603960002353
:1012AC007B6200233B6261E101227B6A02FA03F359
:1012BC00FB613B681B68FA691340BB61BA69FB6947
:1012CC009A4240F050813B685B68974A93425ED0EB
:1012DC00954A934275D8954A934258D0934A934273
:1012EC006FD8934A934252D0914A934269D8914A0B
:1012FC0093424CD08F4A934263D88F4A934246D044
:10130C008D4A93425DD8122B2AD8122B59D801A2A0
:10131C0052F823F09B13000875130008871300087C
:10132C00C9130008CF130008CF130008CF1300080F
:10133C00CF130008CF130008CF130008CF130008F9
:10134C00CF130008CF130008CF130008CF130008E9
:10135C00CF130008CF1300087D1300089113000869
:10136C00764A934213D02CE03B68DB683B6229E061
:10137C003B68DB6804333B6224E03B68DB68083382
:10138C003B621FE03B68DB680C333B621AE03B6856
:10139C009B68002B02D104233B6213E03B689B68E3
:1013AC00012B05D108233B627B68FA691A6109E0BD
:1013BC0008233B627B68FA695A6103E000233B62B5
:1013CC0000E000BFBB69FF2B01D87B6801E07B68A4
:1013DC0004337B61BB69FF2B02D87B6A9B0002E064
:1013EC007B6A083B9B003B617B691A680F213B6958
:1013FC0001FA03F3DB431A40396A3B6901FA03F340
:10140C001A437B691A603B685B6803F08053002BBE
:10141C0000F0A9804A4B9B69494A43F00103936150
:10142C00474B9B6903F00103BB60BB68454A7B6A71
:10143C009B08023352F82330FB607B6A03F00303F2
:10144C009B000F2202FA03F3DB43FA681340FB60A4
:10145C007B683D4A93420DD07B683C4A934207D04F
:10146C007B683B4A934201D1022304E0032302E050
:10147C00012300E000237A6A02F0030292009340F9
:10148C00FA681343FB602F497B6A9B080233FA68A6
:10149C0041F823203B685B6803F48033002B06D0B3
:1014AC002C4B1A682B49BB6913430B6006E0294B84
:1014BC001A68BB69DB43274913400B603B685B68C8
:1014CC0003F40033002B06D0224B5A682149BB6928
:1014DC0013434B6006E01F4B5A68BB69DB431D4945
:1014EC0013404B603B685B6803F48013002B06D001
:1014FC00184B9A681749BB6913438B6006E0154B70
:10150C009A68BB69DB43134913408B603B685B688B
:10151C0003F40013002B1FD00E4BDA680D49BB6986
:10152C001343CB601FE000BF0000321000003110ED
:10153C0000002210000021100000121000001110F9
:10154C00001002400000014000080140000C014066
:10155C0000100140000401400B4BDA68BB69DB430F
:10156C0009491340CB607B6A01337B623B681A6884
:10157C007B6A22FA03F3002B7FF496AE00BF00BF08
:10158C002C37BD4680BC70470004014080B485B048
:10159C0000AF78600B467B807B689A687B88134031
:1015AC00002B02D00123FB7301E00023FB73FB7BB8
:1015BC0018461437BD4680BC704780B483B000AF6A
:1015CC0078600B467B8013467B707B78002B03D0B6
:1015DC007A887B681A6103E07B881A047B681A613D
:1015EC0000BF0C37BD4680BC7047000080B586B08C
:1015FC0000AF78607B68002B01D1012372E27B681D
:10160C001B6803F00103002B00F08780924B5B6892
:10161C0003F00C03042B0CD08F4B5B6803F00C0312
:10162C00082B12D18C4B5B6803F48033B3F5803FED
:10163C000BD1894B1B6803F40033002B6CD07B68F7
:10164C005B68002B68D101234CE27B685B68B3F5C7
:10165C00803F06D1804B1B687F4A43F48033136074
:10166C002EE07B685B68002B0CD17B4B1B687A4AA5
:10167C0023F480331360784B1B68774A23F4802360
:10168C0013601DE07B685B68B3F5A02F0CD1724B27
:10169C001B68714A43F4802313606F4B1B686E4ABE
:1016AC0043F4803313600BE06B4B1B686A4A23F4E2
:1016BC0080331360684B1B68674A23F480231360E4
:1016CC007B685B68002B13D0FFF7CCFC386108E01B
:1016DC00FFF7C8FC02463B69D31A642B01D90323DC
:1016EC0000E25D4B1B6803F40033002BF0D014E0D8
:1016FC00FFF7B8FC386108E0FFF7B4FC02463B6921
:10170C00D31A642B01D90323ECE1534B1B6803F46C
:10171C000033002BF0D100E000BF7B681B6803F0A6
:10172C000203002B63D04C4B5B6803F00C03002BC3
:10173C000BD0494B5B6803F00C03082B1CD1464BB8
:10174C005B6803F48033002B16D1434B1B6803F00A
:10175C000203002B05D07B681B69012B01D00123F0
:10176C00C0E13D4B1B6823F0F8027B685B69DB0032
:10177C00394913430B603AE07B681B69002B20D07E
:10178C00364B01221A60FFF76DFC386108E0FFF759
:10179C0069FC02463B69D31A022B01D90323A1E150
:1017AC002D4B1B6803F00203002BF0D02A4B1B6857
:1017BC0023F0F8027B685B69DB00274913430B605D
:1017CC0015E0264B00221A60FFF74CFC386108E04C
:1017DC00FFF748FC02463B69D31A022B01D90323BD
:1017EC0080E11D4B1B6803F00203002BF0D17B68DA
:1017FC001B6803F00803002B3AD07B689B69002B15
:10180C0019D0174B01221A60FFF72CFC386108E045
:10181C00FFF728FC02463B69D31A022B01D903239C
:10182C0060E10D4B5B6A03F00203002BF0D001204A
:10183C0000F0A6FA1CE00A4B00221A60FFF712FC1B
:10184C0038610FE0FFF70EFC02463B69D31A022BFE
:10185C0008D9032346E100BF0010024000004242B9
:10186C0080044242924B5B6A03F00203002BE9D1E5
:10187C007B681B6803F00403002B00F0A680002398
:10188C00FB758B4BDB6903F08053002B0DD1884B20
:10189C00DB69874A43F08053D361854BDB6903F0E6
:1018AC008053BB60BB680123FB75824B1B6803F440
:1018BC008073002B18D17F4B1B687E4A43F48073D6
:1018CC001360FFF7CFFB386108E0FFF7CBFB024654
:1018DC003B69D31A642B01D9032303E1754B1B68B5
:1018EC0003F48073002BF0D07B68DB68012B06D1EE
:1018FC006F4B1B6A6E4A43F0010313622DE07B6849
:10190C00DB68002B0CD16A4B1B6A694A23F001037C
:10191C001362674B1B6A664A23F0040313621CE0D4
:10192C007B68DB68052B0CD1614B1B6A604A43F06A
:10193C00040313625E4B1B6A5D4A43F0010313629E
:10194C000BE05B4B1B6A5A4A23F001031362584BA2
:10195C001B6A574A23F0040313627B68DB68002B75
:10196C0015D0FFF77FFB38610AE0FFF77BFB0246DF
:10197C003B69D31A41F28832934201D90323B1E077
:10198C004B4B1B6A03F00203002BEED014E0FFF765
:10199C0069FB38610AE0FFF765FB02463B69D31A25
:1019AC0041F28832934201D903239BE0404B1B6ADE
:1019BC0003F00203002BEED1FB7D012B05D13C4B38
:1019CC00DB693B4A23F08053D3617B68DB69002BD6
:1019DC0000F08780364B5B6803F00C03082B61D05A
:1019EC007B68DB69022B46D1334B00221A60FFF770
:1019FC0039FB386108E0FFF735FB02463B69D31A27
:101A0C00022B01D903236DE0294B1B6803F00073F3
:101A1C00002BF0D17B681B6AB3F5803F08D1244BB7
:101A2C005B6823F400327B689B68214913434B604D
:101A3C001F4B5B6823F474127B68196A7B685B6AC2
:101A4C000B431B4913434B601B4B01221A60FFF7DE
:101A5C0009FB386108E0FFF705FB02463B69D31A26
:101A6C00022B01D903233DE0114B1B6803F00073DB
:101A7C00002BF0D035E0104B00221A60FFF7F2FA81
:101A8C00386108E0FFF7EEFA02463B69D31A022BE5
:101A9C0001D9032326E0064B1B6803F00073002BCF
:101AAC00F0D11EE07B68DB69012B07D1012319E023
:101ABC000010024000700040600042420B4B5B681B
:101ACC00FB60FB6803F480327B681B6A9A4206D188
:101ADC00FB6803F470127B685B6A9A4201D00123A5
:101AEC0000E0002318461837BD4680BD00100240A8
:101AFC0080B584B000AF786039607B68002B01D171
:101B0C000123D0E06A4B1B6803F007033A689A4242
:101B1C0010D9674B1B6823F0070265493B681343D8
:101B2C000B60634B1B6803F007033A689A4201D0C1
:101B3C000123B8E07B681B6803F00203002B20D064
:101B4C007B681B6803F00403002B05D0594B5B68C2
:101B5C00584A43F4E06353607B681B6803F0080346
:101B6C00002B05D0534B5B68524A43F460535360CF
:101B7C00504B5B6823F0F0027B689B684D49134324
:101B8C004B607B681B6803F00103002B40D07B6823
:101B9C005B68012B07D1474B1B6803F40033002B08
:101BAC0015D101237FE07B685B68022B07D1414B89
:101BBC001B6803F00073002B09D1012373E03D4B2C
:101BCC001B6803F00203002B01D101236BE0394B9E
:101BDC005B6823F003027B685B68364913434B60F8
:101BEC00FFF740FAF8600AE0FFF73CFA0246FB68A0
:101BFC00D31A41F28832934201D9032353E02D4B7F
:101C0C005B6803F00C027B685B689B009A42EBD12B
:101C1C00274B1B6803F007033A689A4210D2244BF7
:101C2C001B6823F0070222493B6813430B60204BCF
:101C3C001B6803F007033A689A4201D0012332E093
:101C4C007B681B6803F00403002B08D0194B5B68FE
:101C5C0023F4E0627B68DB68164913434B607B68B6
:101C6C001B6803F00803002B09D0124B5B6823F4AC
:101C7C0060527B681B69DB000E4913434B6000F01C
:101C8C0021F802460B4B5B681B0903F00F030A4952
:101C9C00CB5C22FA03F3094A1360094B1B68184604
:101CAC00FFF79EF9002318461037BD4680BD00BFD4
:101CBC000020024000100240102600085C000020AA
:101CCC006000002090B48AB000AF294B3C1D0FCBB4
:101CDC0084E80F0040F201233B800023FB610023CA
:101CEC00BB6100237B6200237B6100233B62214BA1
:101CFC005B68FB61FB6903F00C03042B02D0082B1F
:101D0C0003D02BE01C4B3B622BE0FB699B0C03F0DC
:101D1C000F0328333B4413F8243C7B61FB6903F429
:101D2C008033002B12D0134B5B685B0C03F0010368
:101D3C0028333B4413F8283CBB617B690E4A03FBF8
:101D4C0002F2BB69B2FBF3F37B6204E07B690B4AE2
:101D5C0002FB03F37B627B6A3B6202E0064B3B6255
:101D6C0000BF3B6A18462837BD4690BC704700BF81
:101D7C00002600080010024000127A0000093D0005
:101D8C0080B485B000AF78600A4B1B680A4AA2FB8E
:101D9C0003235B0A7A6802FB03F3FB6000BFFB685A
:101DAC005A1EFA60002BF9D100BF00BF1437BD4694
:101DBC0080BC70475C000020D34D621080B582B0AF
:101DCC0000AF78607B68002B01D1012341E07B6878
:101DDC0093F83D30DBB2002B06D17B68002283F8F0
:101DEC003C207868FFF764F87B68022283F83D207A
:101DFC007B681A687B6804331946104600F06AFA4F
:101E0C007B68012283F846207B68012283F83E2000
:101E1C007B68012283F83F207B68012283F84020F5
:101E2C007B68012283F841207B68012283F84220E1
:101E3C007B68012283F843207B68012283F84420CD
:101E4C007B68012283F845207B68012283F83D20C2
:101E5C00002318460837BD4680BD000080B485B00D
:101E6C0000AF78607B6893F83D30DBB2012B01D07A
:101E7C00012335E07B68022283F83D207B681B68D8
:101E8C00DA687B681B6842F00102DA607B681B68C9
:101E9C00164A934209D07B681B68B3F1804F04D07B
:101EAC007B681B68124A934211D17B681B689B6844
:101EBC0003F00703FB60FB68062B10D07B681B68E4
:101ECC001A687B681B6842F001021A6007E07B68A5
:101EDC001B681A687B681B6842F001021A600023B9
:101EEC0018461437BD4680BC704700BF002C01401B
:101EFC000004004080B582B000AF78607B681B683E
:101F0C001B6903F00203022B22D17B681B68DB6880
:101F1C0003F00203022B1BD17B681B686FF00202DB
:101F2C001A617B6801221A777B681B689B6903F036
:101F3C000303002B03D0786800F0B1F905E0786852
:101F4C0000F0A4F9786800F0B3F97B6800221A77E6
:101F5C007B681B681B6903F00403042B22D17B688C
:101F6C001B68DB6803F00403042B1BD17B681B6824
:101F7C006FF004021A617B6802221A777B681B6877
:101F8C009B6903F44073002B03D0786800F087F949
:101F9C0005E0786800F07AF9786800F089F97B68D8
:101FAC0000221A777B681B681B6903F00803082B57
:101FBC0022D17B681B68DB6803F00803082B1BD15C
:101FCC007B681B686FF008021A617B6804221A7721
:101FDC007B681B68DB6903F00303002B03D0786874
:101FEC0000F05DF905E0786800F050F9786800F0D1
:101FFC005FF97B6800221A777B681B681B6903F00A
:10200C001003102B22D17B681B68DB6803F01003D4
:10201C00102B1BD17B681B686FF010021A617B6858
:10202C0008221A777B681B68DB6903F44073002B6A
:10203C0003D0786800F033F905E0786800F026F9F1
:10204C00786800F035F97B6800221A777B681B688A
:10205C001B6903F00103012B0ED17B681B68DB6845
:10206C0003F00103012B07D17B681B686FF00102A1
:10207C001A617868FEF70EFE7B681B681B6903F01B
:10208C008003802B0ED17B681B68DB6803F0800318
:10209C00802B07D17B681B686FF080021A6178680F
:1020AC0000F067FA7B681B681B6903F04003402B48
:1020BC000ED17B681B68DB6803F04003402B07D113
:1020CC007B681B686FF040021A61786800F0F9F8C1
:1020DC007B681B681B6903F02003202B0ED17B68E7
:1020EC001B68DB6803F02003202B07D17B681B687F
:1020FC006FF020021A61786800F032FA00BF0837DE
:10210C00BD4680BD80B584B000AF786039607B6817
:10211C0093F83C30012B01D10223B3E07B68012200
:10212C0083F83C207B68022283F83D207B681B6887
:10213C009B68FB60FB6823F07703FB60FB6823F470
:10214C007F43FB607B681B68FA689A603B681B687E
:10215C00B3F5005F3ED0B3F5005F00F28780B3F5B6
:10216C00805F00F08580B3F5805F7FD8702B1AD02C
:10217C00702B7BD8602B50D0602B77D8502B3CD059
:10218C00502B73D8402B58D0402B6FD8302B64D0A9
:10219C00302B6BD8202B60D0202B67D8002B5CD039
:1021AC00102B5AD062E07B6818683B6899683B68D2
:1021BC005A683B68DB6800F05CF97B681B689B68BD
:1021CC00FB60FB6843F07703FB607B681B68FA6875
:1021DC009A604EE07B6818683B6899683B685A685F
:1021EC003B68DB6800F045F97B681B689A687B6884
:1021FC001B6842F480429A603BE07B6818683B683D
:10220C0059683B68DB681A4600F0BCF87B681B68B1
:10221C005021184600F013F92BE07B6818683B68D6
:10222C0059683B68DB681A4600F0DAF87B681B6873
:10223C006021184600F003F91BE07B6818683B68C6
:10224C0059683B68DB681A4600F09CF87B681B6891
:10225C004021184600F0F3F80BE07B681A683B68E5
:10226C001B681946104600F0EAF802E000BF00E0D7
:10227C0000BF7B68012283F83D207B68002283F835
:10228C003C20002318461037BD4680BD80B483B077
:10229C0000AF786000BF0C37BD4680BC704780B47F
:1022AC0083B000AF786000BF0C37BD4680BC704770
:1022BC0080B483B000AF786000BF0C37BD4680BCE3
:1022CC00704780B483B000AF786000BF0C37BD4658
:1022DC0080BC704780B485B000AF786039607B6893
:1022EC001B68FB607B68254A934207D07B68B3F17F
:1022FC00804F03D07B68224A934208D1FB6823F0BD
:10230C007003FB603B685B68FA681343FB607B6897
:10231C001A4A934207D07B68B3F1804F03D07B6895
:10232C00174A934208D1FB6823F44073FB603B6867
:10233C00DB68FA681343FB60FB6823F080023B68A0
:10234C005B691343FB607B68FA681A603B689A68A8
:10235C007B68DA623B681A687B689A627B68074A1A
:10236C00934203D13B681A697B681A637B6801222C
:10237C005A6100BF1437BD4680BC7047002C014029
:10238C000004004080B487B000AFF860B9607A6098
:10239C00FB681B6A7B61FB681B6A23F00102FB680C
:1023AC001A62FB689B693B613B6923F0F0033B615C
:1023BC007B681B013A6913433B617B6923F00A0379
:1023CC007B617A69BB6813437B61FB683A699A61EC
:1023DC00FB687A691A6200BF1C37BD4680BC704727
:1023EC0080B487B000AFF860B9607A60FB681B6A94
:1023FC0023F01002FB681A62FB689B697B61FB6827
:10240C001B6A3B617B6923F470437B617B681B0314
:10241C007A6913437B613B6923F0A0033B61BB6882
:10242C001B013A6913433B61FB687A699A61FB684B
:10243C003A691A6200BF1C37BD4680BC704780B435
:10244C0085B000AF786039607B689B68FB60FB6887
:10245C0023F07003FB603A68FB68134343F00703F7
:10246C00FB607B68FA689A6000BF1437BD4680BC7D
:10247C00704780B487B000AFF860B9607A603B6099
:10248C00FB689B687B617B6923F47F437B613B68C2
:10249C001A027B681A43BB6813437A6913437B6146
:1024AC00FB687A699A6000BF1C37BD4680BC7047D8
:1024BC0080B485B000AF786039607B6893F83C30AD
:1024CC00012B01D1022341E07B68012283F83C20DF
:1024DC007B68022283F83D207B681B685B68FB608D
:1024EC007B681B689B68BB60FB6823F07003FB6018
:1024FC003B681B68FA681343FB607B681B68FA68CF
:10250C005A607B681B68144A934209D07B681B682D
:10251C00B3F1804F04D07B681B68104A93420CD1F6
:10252C00BB6823F08003BB603B685B68BA681343ED
:10253C00BB607B681B68BA689A607B68012283F871
:10254C003D207B68002283F83C200023184614377A
:10255C00BD4680BC704700BF002C01400004004009
:10256C0080B483B000AF786000BF0C37BD4680BC30
:10257C00704780B483B000AF786000BF0C37BD46A5
:10258C0080BC704770B500260C4D0D4C641BA4101C
:10259C00A64209D100F022F800260A4D0A4C641B11
:1025AC00A410A64205D170BD55F8043B98470136DE
:1025BC00EEE755F8043B98470136F2E72026000871
:1025CC002026000820260008242600080346024482
:1025DC00934200D1704703F8011BF9E7F8B500BF2F
:1025EC00F8BC08BC9E467047F8B500BFF8BC08BCE8
:0425FC009E46704740
:1026000002030405060708090A0B0C0D0E0F101033
:102610000000000000000000010203040607080992
:04262000310100087C
:042624000D0100089C
:10262800010000000100000001000000010000009E
:10263800010000000100000001000000010000008E
:10264800010000000100000001000000010000007E
:10265800010000000100000001000000010000006E
:102668002C0100002C0100002C0100002C010000AE
:10267800C0F9A4B0999282F8809000000024F40078
:08268800100000000100000039
:0400000508000F756B
:00000001FF
